:0300000002156383
:0C156300787FE4F6D8FD75814D020FE69C
:10002600596F7572204431322063686970277320D6
:1000360049442069733A20002E20494420697320E0
:10004600636F72726563742120436F6E67726174A9
:10005600756C6174696F6E73210D0A0D0A002E208E
:10006600494420697320696E636F727265637421F7
:10007600205768617420612070697479210D0A0D1A
:100086000A002A2A2A2A2A2A2A2A2A2A2A2A2A2A14
:100096002A2A2A2A2A2A2A2A2A2A2A2A2A2A2A2ABA
:1000A6002A2A2A2A2A2A2A2A2A2A2A2A2A2A2A2AAA
:1000B6002A2A2A2A2A2A2A2A2A2A2A2A2A2A2A2A9A
:1000C6002A2A2A2A2A2A0D0A000000002A2A2A2A6F
:1000D6002A2A20202020202020202020202020A185
:1000E600B6C8A6C8A6BDCCC4E3CDE6555342A1B753
:1000F600D6AE20555342CAF3B1EA20202020202054
:10010600202020202020202020202A2A2A2A2A2AAD
:100116000D0A000000002A2A2A2A2A2A2020202046
:1001260020202020202020202020202020202020C9
:100136002020415438395335322043505520202051
:1001460020202020202020202020202020202020A9
:10015600202020202A2A2A2A2A2A0D0A0000000006
:100166002A2A2A2A2A2A202020202020202020204D
:100176002020202020202020BDA8C1A2C8D5C6DA74
:10018600A3BA00000000000000000000000000000C
:100196000000000000000000000000000000000059
:1001A600000000000000000000004170722032379D
:1001B6002032303130000000000000000000000056
:1001C6000000000000000000000000000000000029
:1001D6000000000000000000000000000000000019
:1001E6000000000000000000000000000000000009
:1001F6000000000020202020202020202020202079
:1002060020202020202A2A2A2A2A2A0D0A00000035
:1002160000000000000000000000000000000000D8
:1002260000000000000000000000000000000000C8
:1002360000000000000000000000000000002A2A64
:100246002A2A2A2A20202020202020202020202080
:1002560020202020202020BDA8C1A2CAB1BCE4A332
:10026600BA000000000000000000000000000000CE
:100276000000000000000000000000000000000078
:10028600000000000000000031343A35343A3035C1
:100296000000000000000000000000000000000058
:1002A6000000000000000000000000000000000048
:1002B6000000000000000000000000000000000038
:1002C6000000000000000000000000000000000028
:1002D6000000202020202020202020202020202058
:1002E60020202020202A2A2A2A2A2A0D0A00000055
:1002F60000000000000000000000000000000000F8
:1003060000000000000000000000000000000000E7
:100316000000000000000000000000002A2A2A2A2F
:100326002A2A2020202020202020202020202020B3
:10033600202020202020D7F7D5DFA3BAB5E7C4D4E4
:10034600C8A6C8A62020202020202020202020204B
:10035600202020202020202020202A2A2A2A2A2A5B
:100366000D0A000000002A2A2A2A2A2A20202020F4
:100376002020202020202020202020202020202077
:10038600BBB6D3ADB7C3CECAD7F7D5DFB5C4202029
:100396002020202020202020202020202020202057
:1003A600202020202A2A2A2A2A2A0D0A00000000B4
:1003B6002A2A2A2A2A2A20202020202020202020FB
:1003C60020555342D7A8C7F8A3BA687474703A2F59
:1003D6002F67726F75702E65646E6368696E612E25
:1003E600636F6D2F39332F202020202020202A2ACA
:1003F6002A2A2A2A0D0A000000002A2A2A2A2A2A3C
:10040600202020202020424C4F4731A3BA68747424
:10041600703A2F2F7777772E65646E6368696E6101
:100426002E636F6D2F626C6F672F636F6D707574BF
:1004360065723030202020202A2A2A2A2A2A0D0AEC
:10044600000000002A2A2A2A2A2A202020202020EA
:1004560020202020202020202020424C4F4732A35D
:10046600BA687474703A2F2F636F6D707574657205
:1004760030302E323169632E6F72672020202020A3
:1004860020202A2A2A2A2A2A0D0A000000002A2ABF
:100496002A2A2A2A2020202020202020202020202E
:1004A600202020202020C7EBB0B44B312D4B38B78D
:1004B600D6B1F0BDF8D0D0B2E2CAD4202020202098
:1004C6002020202020202020202020202A2A2A2AFE
:1004D6002A2A0D0A000000002A2A2A2A2A2A20206F
:1004E60020204B313AB9E2B1EAD7F3D2C620204BED
:1004F600323AB9E2B1EAD3D2D2C620204B333AB966
:10050600E2B1EAC9CFD2C6204B343AB9E2B1EACF5A
:10051600C2D2C62020202A2A2A2A2A2A0D0A000008
:1005260000002A2A2A2A2A2A202020204B353AB9D6
:10053600F6C2D6CFC2B9F620204B363AB9F6C2D6A5
:10054600C9CFB9F620204B373ACAF3B1EAD7F3BC84
:10055600FC204B383ACAF3B1EAD3D2BCFC202020A7
:100566002A2A2A2A2A2A0D0A000000002A2A2A2ACA
:100576002A2A2A2A2A2A2A2A2A2A2A2A2A2A2A2AD5
:100586002A2A2A2A2A2A2A2A2A2A2A2A2A2A2A2AC5
:100596002A2A2A2A2A2A2A2A2A2A2A2A2A2A2A2AB5
:1005A6002A2A2A2A2A2A2A2A2A2A2A2A2A2A2A2AA5
:0A05B6000D0A000000000000000024
:1011F900780C7C007D007BFF7A0579BC7E007F043A
:10120900120E35784DE654C0F6784BE654C0F678A0
:1012190049E6543F700A784DE67005784BE6605808
:101229007849E630E003750DFF7849E630E103754A
:101239000D017849E630E203750EFF7849E630E39F
:1012490003750E017849E630E403750FFF7849E626
:1012590030E503750F017849E630E603430C017860
:1012690049E630E703430C027B007A00790C7D04E0
:0F1279007F0312115E752501E4784DF6784BF670
:011288002243
:100FE600D2AF12148A1214A8E4F508E50875F04A7F
:100FF600A42488F9740035F0FA7BFF1214F1050871
:10100600E508C3941240E41215168E098F0A7BFF79
:101016007A0079261214F1AF0AAE091213C8E50A4E
:10102600B4120DE509B410087BFF7A00793E8006FC
:101036007BFF7A0079641214F112146B1214C5E462
:10104600F52720B24A7FF412157B12158A8F0BE51D
:101056000B30E7031215BEE50B30E603121556E515
:101066000B30E0031209A8E50B30E103121527E562
:101076000B30E2031215C7E50B30E303121504E546
:101086000B30E4031215D0E50B30E5031215D9E554
:101096002760AF7849E6F4F5A0E52570A5F5357823
:1010A6004DE6700A784BE670057849E66003121142
:0610B600F9753501808C84
:0B159F005389F0438901D2A9D28C22AD
:10148A007590FFE47849F618F6784CF67847F678BE
:0E149A004AF608F6784DF612159F75350122B8
:03000B0002136875
:10136800C0E0C0D075D000C000C001758CDC758AA3
:1013780010E5356042E590F47847F67947E7784C10
:1013880066600B7848760018E6784CF6802978482D
:1013980006E6C3940140207601784CE67849F608C1
:1013A800E6F41856784B46F67849E6F40856784D30
:1013B80046F67849E608F6D001D000D0D0D0E03221
:101538003031323334353637383941424344454601
:1014A800C2AF53890F438920759850758DF4758B99
:0D14B800F4438780D2ACD28ED29CD2AF22FA
:0300230002156F54
:0C156F00309803C29832C29975360032E1
:0A15AA008F99753601E53670FC22BA
:1014F100120E5BFF600C1215AA740129F9E43AFA85
:0315010080EE2257
:081289008F198E188D178C16C9
:10129100751A09E47B0AFAF9F8AF19AE18AD17AC63
:1012A10016120F54EB2430FF741B251AF8A607AF52
:1012B10019AE18AD17AC16E47B0AFAF9F8120F54FF
:1012C1008F198E188D178C16151AC3E51A64809420
:1012D1008050C0E4F51A741B251AF8E6B4300705EE
:1012E1001AE51AB409F0C3E51A6480948A500E74A1
:0D12F1001B251AF8E6FF1215AA051A80E960
:0112FE0022CD
:1013C800E4F512750C30750D787D057A00EF540F31
:1013D8002438F582EA3415F583E493FC740C2DF86F
:1013E800A604EEC4F854F0C868FEEFC4540F48FFD2
:0D13F8001DBD01D77B007A00790C0214F1B5
:0A15B4007536018F99E53670FC22B0
:10140500AE077F301215B47F781215B4EEC4540FB1
:1014150090153893FF1215B4EE540F93FF1215B4BF
:051425007F200215B458
:10142A00B6C1B6CBB5E300BBBAB3E5C7F800D7D6A9
:10143A00BDDAA1A30D0A000D0A00D0B4B6CBB5E3FC
:01144A0000A1
:0C157B00D2B5C2B68F80D2B67580FF22B8
:0315870012157BBF
:08158A00C2B5C2B7AF80D2B7B1
:011592002236
:101516007FFD121587AD077C0012158AEFFEAF0519
:0115260022A2
:0C159300C2B5C2B68F80D2B67580FF22B0
:08000300EF2440FF12158722D3
:0315EC0002157B6A
:0515E2007FF202157B01
:10000E007F011215EC7FF112157BE4FF1215EC7FC8
:04001E00F102157B5B
:0810BC008F0C8B0D8A0E890FC9
:1010C4001215EC7FF012157B12158A12158A8F11F6
:1010D400E511D39D40028D117BFF7A14792A1214F5
:1010E400F1E50CC313FFE4FCFDFE1212897BFF7AC9
:1010F4001479311214F1AF11E4FCFDFE1212897B54
:10110400FF7A1479381214F1E4F510E510C395113F
:101114005036C2B7AB0DAA0EA90F85108275830095
:10112400E580120EA1D2B7851082758300120E7469
:10113400FF121405E51004540F70097BFF7A14792B
:10114400411214F1051080C3E511540F60097BFFAF
:091154007A1479411214F1AF1173
:01115D00226F
:0515E7007FFA02157BF4
:0A115E008F108D118B128A13891473
:101168001215EC7FF012157BE4FF121593AF1112E4
:1011780015937BFF7A1479441214F1E510C313FF19
:10118800E4FCFDFE1212897BFF7A1479311214F106
:10119800AF11E4FCFDFE1212897BFF7A1479381234
:1011A80014F1E4F515E515C39511502DC2B6AB122F
:1011B800AA13A914851582758300120E74FFF58091
:1011C800D2B6121405E51504540F70097BFF7A1482
:1011D80079411214F1051580CCE511540F60097B93
:1011E800FF7A1479411214F17580FF1215E7AF11D7
:0111F80022D4
:0E154800AE077FD012157BEE4480FF02159394
:1014DD00AE077FD812157BEE60047F018002E4FF1A
:0414ED00121593221F
:1005C000B6CFBFAA555342C1ACBDD3A1A30D0A00FB
:1005D000C1ACBDD3555342A1A30D0A00555342D718
:1005E000DCCFDFB9D2C6F0A1A30D0A00555342D724
:1005F000DCCFDFB8B4CEBBA1A30D0A00555342B681
:10060000CBB5E330CAE4B3F6D6D0B6CFA1A30D0A7A
:1006100000555342B1EAD7BCCAE4C8EBC7EBC7F3F5
:10062000A3BA00BBF1C8A1C5E4D6C3A1A30D0A00BB
:10063000BBF1C8A1C3E8CAF6B7FBA1AAA1AA00C929
:10064000E8B1B8C3E8CAF6B7FBA1A30D0A00C5E438
:10065000D6C3C3E8CAF6B7FBA1A30D0A00D7D6B725
:10066000FBB4AEC3E8CAF6B7FB0028D3EFD1D44938
:100670004429A1A30D0A0028B3A7C9CCC3E8CAF630
:1006800029A1A30D0A0028B2FAC6B7C3E8CAF62901
:10069000A1A30D0A0028B2FAC6B7D0F2C1D0BAC5DC
:1006A00029A1A30D0A0028CEB4D6AAB5C4CBF7D28F
:1006B000FDD6B529A1A30D0A00B1A8B8E6C3E8CAC2
:1006C000F6B7FBA1A30D0A00C6E4CBFBC3E8CAF64C
:1006D000B7FBA3ACC3E8CAF6B7FBB4FAC2EBA3BA44
:1006E000000D0A00BBF1C8A1BDD3BFDAA1A30D0A5A
:1006F00000BBF1C8A1D7B4CCACA1A30D0A00CDAC0E
:10070000B2BDD6A1A1A30D0A00B4EDCEF3A3BACE1B
:10071000B4B6A8D2E5B5C4B1EAD7BCCAE4C8EBC741
:10072000EBC7F3A1A30D0A00555342C0E0CAE4C8C9
:10073000EBC7EBC7F3A3BA0D0A00555342B3A7C9E1
:10074000CCCAE4C8EBC7EBC7F3A3BA0D0A00B4EDFB
:10075000CEF3A3BACEB4B6A8D2E5B5C4CAE4C8EB0A
:10076000C7EBC7F3A1A30D0A00555342B1EAD7BCAA
:10077000CAE4B3F6C7EBC7F3A3BA00C7E5B3FDCC31
:10078000D8D0D4A1A30D0A00C9E8D6C3B5D8D6B72E
:10079000A1A3B5D8D6B7CEAAA3BA00C9E8D6C3C517
:1007A000E4D6C3A1A30D0A00C9E8D6C3C3E8CAF6BC
:1007B000B7FBA1A30D0A00C9E8D6C3CCD8D0D4A1F9
:1007C000A30D0A00C9E8D6C3BDD3BFDAA1A30D0AA1
:1007D00000B4EDCEF3A3BACEB4B6A8D2E5B5C4B199
:1007E000EAD7BCCAE4B3F6C7EBC7F3A1A30D0A006E
:1007F000555342C0E0CAE4B3F6C7EBC7F3A3BA004F
:10080000C9E8D6C3BFD5CFD0A1A30D0A00CEB4D6B8
:10081000AAC7EBC7F3A1A30D0A00555342B3A7C95A
:10082000CCCAE4B3F6C7EBC7F3A3BA0D0A00B4ED24
:10083000CEF3A3BACEB4B6A8D2E5B5C4CAE4B3F633
:10084000C7EBC7F3A1A30D0A00555342B6CBB5E3DE
:1008500030CAE4C8EBD6D0B6CFA1A30D0A005553D9
:1008600042B6CBB5E331CAE4B3F6D6D0B6CFA1A336
:100870000D0A00555342B6CBB5E331CAE4C8EBD6F6
:10088000D0B6CFA1A30D0A00555342B6CBB5E33283
:10089000CAE4B3F6D6D0B6CFA1A30D0A0055534291
:1008A000B6CBB5E332CAE4C8EBD6D0B6CFA1A30D20
:1008B0000A001201100100000010888801000001E8
:1008C0000102030105010902A1010901A1000509B5
:1008D0001901290315002501950375018102950170
:1008E0007505810305010930093109381581257F16
:1008F000750895038106C0C009022200010100802D
:100900003209040000010301020009211001210144
:100910002234000705810310000A0403090452036E
:1009200035751181085708578476550053004200E9
:10093000134E3A53200048007400740070003A00CF
:100940002F002F00670072006F00750070002E00EE
:10095000650064006E006300680069006E0061005D
:100960002E0063006F006D002F00390033002F0050
:1009700022030A30085708575965604FA97355007C
:10098000530042000B304B4E550053004200209F55
:100990000768160332003000300038002D003000A8
:0809A00037002D003000370084
:10144B00E4FDFCC3ED9FEC9E5015E4FBFA0BBB00D7
:0F145B00010AEB64E34A70F50DBD00010C80E45B
:01146A00225F
:10146B007BFF7A0579C01214F17FF312157B7F068F
:0F147B001215937F471215937FE87E0302144BDF
:1014C5007BFF7A0579D01214F17FF312157B7F1615
:0814D5001215937F47021593E5
:0915BE007BFF7A0579DC0214F1CF
:0D1556007BFF7A0579EC1214F1E4F52522F3
:1012FF009008B9E493FDFFD3E52C9FE52B940040B4
:10130F0029AB31AA32A9337F0112115E9008B9E4DB
:10131F0093FF7E00C3E52C9FF52CE52B9EF52BEF5D
:10132F002533F533EE3532F53222E52C452B60139C
:10133F00AD2CAB31AA32A9337F0112115EE4F52B2C
:10134F00F52C22E534B40110AB31AA32A933E4FDF8
:09135F007F0112115EE4F5342255
:1009A8007BFF7A0579FC1214F1E4FF120003EF20B3
:1009B800E503020D547B007A0079377D10E4FF12BD
:1009C80010BC12000E1215E27837E6F52A08E6F593
:1009D80026783AE6FE18E67C002400F530EC3EF571
:1009E8002F783CE6FE18E62400F52EEC3EF52D782F
:1009F8003EE6FE18E62400F529EC3EF528E52A2017
:100A0800E703020C6DC4135403147003020C521450
:100A18007003020C5B24026003020C647BFF7A06FD
:100A280079111214F1E5267003020C3724FA601EBE
:100A380024FC7003020C2E24FE7003020C402404D4
:100A48006003020C497BFF7A067923020D517BFF74
:100A58007A0679301214F1E52F24FE605D147003D4
:100A6800020B1A24E17003020BD224216003020C4A
:100A7800167BFF7A06793F1214F17531FF7532083B
:100A88007533B29008B2E493FF7E00D3E5299FE561
:100A9800289E401D8E2B8F2C9008B9E493FD7C0076
:100AA800AE2BAF2C120EC3ED4C7064753401020DE1
:100AB8003885282B85292C020D387BFF7A06794E3C
:100AC8001214F17531FF7532087533F89008FBE49C
:100AD80093752B00F52CE52CFE9008FAE4937C0026
:100AE8002400F52CEC3EF52BD3E529952CE528952B
:100AF8002B40169008B9E493FDAE2BAF2C120EC311
:100B0800ED4C700B753401800685282B85292C0245
:100B18000D387BFF7A06795D1214F1E530146021F7
:100B2800146035146049240370637BFF7A06796A80
:100B38001214F17531FF75320975331A90091A804C
:100B4800437BFF7A0679771214F17531FF75320904
:100B580075331E90091E802C7BFF7A067986121445
:100B6800F17531FF75320975337090097080157B06
:100B7800FF7A0679951214F17531FF7532097533CC
:100B880092900992E493752B00F52C80117BFF7AE3
:100B98000679A61214F1E4F52BF52C753401D3E58A
:100BA80029952CE528952B40189008B9E493FD7CED
:100BB80000AE2BAF2C120EC3ED4C700B75340180B8
:100BC8000685282B85292C020D387BFF7A0679B9F2
:100BD8001214F17531FF7532087533C4752B007521
:100BE8002C34D3E529952CE528952B40189008B985
:100BF800E493FD7C00AE2BAF2C120EC3ED4C700BB2
:100C0800753401800685282B85292C020D387BFF39
:100C18007A0679C81214F1E52FFF1214057BFF7AC2
:100C28000679E1020D517BFF7A0679E4020D517BCA
:100C3800FF7A0679F1020D517BFF7A0679FE020DE3
:100C4800517BFF7A077909020D517BFF7A077928D2
:100C5800020D517BFF7A07793A020D517BFF7A0723
:100C6800794E020D51E52AC4135403147003020D82
:100C780018147003020D4324026003020D4B7BFF1E
:100C88007A0779691214F1E52624FD606B24FE6069
:100C98001924FE605B24FE603B24FE6063240A7016
:100CA800677BFF7A07797B020D517BFF7A0779888A
:100CB8001214F1AF30E5301214057BFF7A0679E1A2
:100CC8001214F1AF30E530121548E4F52BF52C7508
:100CD8003401805C7BFF7A07799B1214F1E530F5CB
:100CE80027AF271214DDE4F52BF52C75340180406D
:100CF8007BFF7A0779A880517BFF7A0779B780490B
:100D08007BFF7A0779C480417BFF7A0779D18039E4
:100D18007BFF7A0779F01214F1E52624F670147B2C
:100D2800FF7A0879001214F1E4F52BF52C753401DB
:100D38000212FF7BFF7A08790D800E7BFF7A087913
:100D48001A80067BFF7A08792E0214F17B007A005C
:0D0D580079377D10E4FF1210BC1215E22265
:101527007BFF7A0879491214F17F01120003021236
:01153700FFB4
:0915C7007BFF7A08795E0214F141
:101504007BFF7A0879731214F17F03120003E4F568
:0215140025228E
:0915D0007BFF7A0879880214F10E
:0915D9007BFF7A08799D0214F1F0
:100D6500E709F608DFFA8046E709F208DFFA803E70
:100D750088828C83E709F0A3DFFA8032E309F6085D
:100D8500DFFA8078E309F208DFFA807088828C83C5
:100D9500E309F0A3DFFA806489828A83E0A3F60879
:100DA500DFFA805889828A83E0A3F208DFFA804C53
:100DB50080D280FA80C680D4806980F2803380102A
:100DC50080A680EA809A80A880DA80E280CA803393
:100DD50089828A83ECFAE493A3C8C582C8CCC5830B
:100DE500CCF0A3C8C582C8CCC583CCDFE9DEE780DB
:100DF5000D89828A83E493A3F608DFF9ECFAA9F05A
:100E0500EDFB2289828A83ECFAE0A3C8C582C8CCAF
:100E1500C583CCF0A3C8C582C8CCC583CCDFEADEC8
:100E2500E880DB89828A83E493A3F208DFF980CC2A
:100E350088F0EF60010E4E60C388F0ED2402B40423
:100E45000050B9F582EB2402B4040050AF232345CA
:060E55008223900DB5732D
:100E5B00BB010689828A83E0225002E722BBFE0295
:090E6B00E32289828A83E49322C8
:100E7400BB010CE58229F582E5833AF583E0225033
:100E840006E92582F8E622BBFE06E92582F8E2227D
:0D0E9400E58229F582E5833AF583E4932297
:100EA100F8BB010DE58229F582E5833AF583E8F087
:100EB100225006E92582C8F622BBFE05E92582C833
:020EC100F2221B
:100EC300BC000BBE0029EF8DF084FFADF022E4CC13
:100ED300F875F008EF2FFFEE33FEEC33FCEE9DECDC
:100EE300984005FCEE9DFE0FD5F0E9E4CEFD22ED22
:100EF300F8F5F0EE8420D21CFEADF075F008EF2F6C
:100F0300FFED33FD4007985006D5F0F222C398FD5C
:050F13000FD5F0EA22F9
:100F180075F008758200EF2FFFEE33FECD33CDCC90
:100F280033CCC58233C5829BED9AEC99E582984013
:100F38000CF582EE9BFEED9AFDEC99FC0FD5F0D6F0
:100F4800E4CEFBE4CDFAE4CCF9A88222B800C1B91A
:100F58000059BA002DEC8BF084CFCECDFCE5F0CB58
:100F6800F97818EF2FFFEE33FEED33FDEC33FCEB91
:100F780033FB10D703994004EB99FB0FD8E5E4F94C
:100F8800FA227818EF2FFFEE33FEED33FDEC33FC39
:100F9800C933C910D7059BE99A4007EC9BFCE99A2D
:100FA800F90FD8E0E4C9FAE4CCFB2275F010EF2F72
:100FB800FFEE33FEED33FDCC33CCC833C810D70772
:100FC8009BEC9AE899400AED9BFDEC9AFCE899F8AD
:0E0FD8000FD5F0DAE4CDFBE4CCFAE4C8F92240
:00000001FF
